:020000040800F2
:10000000680700208901000881100008830E00089D
:10001000490F00088B020008CF1100080000000003
:100020000000000000000000000000008510000833
:100030008D020008000000008310000887100008EF
:10004000A3010008A3010008A3010008A301000800
:10005000A3010008A3010008A3010008A3010008F0
:10006000A3010008A3010008A3010008A3010008E0
:10007000A3010008A3010008A3010008A3010008D0
:10008000A3010008A3010008A3010008A3010008C0
:10009000A3010008A3010008A3010008A3010008B0
:1000A000A3010008A3010008A3010008A3010008A0
:1000B000ED100008A3010008A3010008A301000837
:1000C000A3010008A3010008A3010008A301000880
:1000D000A3010008A3010008A3010008A301000870
:1000E000A3010008A3010008A301000800F002F822
:1000F00000F03AF80AA090E8000C82448344AAF188
:100100000107DA4501D100F02FF8AFF2090EBAE885
:100110000F0013F0010F18BFFB1A43F0010318473B
:100120001015000030150000103A24BF78C878C1BF
:10013000FAD8520724BF30C830C144BF04680C60ED
:10014000704700000023002400250026103A28BF35
:1001500078C1FBD8520728BF30C148BF0B60704739
:100160001FB51FBD10B510BD00F058F81146FFF7C0
:10017000F7FF01F03DF800F076F803B4FFF7F2FF67
:1001800003BC00F07BF8000009488047094800479D
:10019000FEE7FEE7FEE7FEE7FEE7FEE7FEE7FEE737
:1001A000FEE7FEE704480549054A064B7047000094
:1001B000E9100008ED000008680100206807002031
:1001C00068030020680300204FF0000200B51346CA
:1001D00094469646203922BFA0E80C50A0E80C5067
:1001E000B1F12001BFF4F7AF090728BFA0E80C5018
:1001F00048BF0CC05DF804EB890028BF40F8042B11
:1002000008BF704748BF20F8022B11F0804F18BF7D
:1002100000F8012B7047704770477047754600F033
:1002200029F8AE4605006946534620F0070085468A
:1002300018B020B5FFF7B6FFBDE820404FF000062C
:100240004FF000074FF000084FF0000B21F00701BE
:10025000AC46ACE8C009ACE8C009ACE8C009ACE801
:10026000C0098D4670470446AFF300802046FFF773
:1002700084FF000000487047040100200149182055
:10028000ABBEFEE7260002007047FEE7704772B67D
:10029000FEE7000070B5044600F004F90546601C56
:1002A00002D004480078044400F0FCF8401BA0424F
:1002B000FAD370BD000000202DE9F84FDFF8B891A7
:1002C0000024A9F1040B23460F2709F1040AABF11E
:1002D000040EC9E00125A5402A40AA427DD1674EFF
:1002E000D1F804C0ACEB0608B44532D014DCBCF144
:1002F000030F3AD009DCBCF1000F2AD0BCF1010F8A
:100300001CD0BCF1020F31D11DE0BCF1110F17D090
:10031000BCF1120F2AD119E0B8F5881F19D006DCFC
:10032000B8F5803F15D0B8F5801F1FD111E0B8F5A2
:10033000001F0ED0B8F5041F18D10AE0CB6815E0F5
:10034000CB681B1D12E0CB6808330FE0CB680C3381
:100350000CE08B682BB1012B4FF0080303D04561F3
:1003600004E0042302E0056100E00023FF2A01D835
:10037000064601E000F104064FEA840501D9A5F123
:100380002005D6F8008007FA05FC28EA0C0803FAD5
:1003900005F548EA0508C6F800804D68ED0062D50D
:1003A000374DAE6946F00106AE61AD6924F0030633
:1003B00005F001050095334D06EB050CDCF80850FF
:1003C000A607360F07FA06F825EA0805DFF8B88011
:1003D000404503D14FF0000817E044E0DFF8AC805F
:1003E000404502D14FF001080FE0DFF8A4804045FE
:1003F00002D14FF0020808E0DFF89880404502D1B2
:100400004FF0030801E04FF0040808FA06F848EA44
:100410000508CCF808804D68D9F80060ED024D461B
:1004200001D5164300E096432E604D68DAF800606F
:10043000AD02554601D5164300E096432E604D6847
:10044000DBF80060AD035D4601D5164300E096433E
:100450002E604D68DEF80060ED03754601D5164349
:1004600000E096432E60641C0D682A46E5407FF448
:1004700031AFBDE8F88F0000080401400000111002
:10048000001002400000014000080140000C014043
:1004900000100140001401400AB1016170470904D5
:1004A000FBE7000001488068704700000000002062
:1004B0000248816802781144816070470000002082
:1004C000074810B5016841F010010160032000F0F9
:1004D00075F80F2000F006F800F024F8002010BD99
:1004E0000020024070B50D4D04464FF47A71287813
:1004F000B1FBF0F00A490968B1FBF0F000F0BCFA7A
:1005000048B9102C07D200222146501E00F036F8C0
:1005100000206C6070BD012070BD00000000002054
:100520000C0000200C4808B5816941F0010181618F
:10053000816901F001010091C16941F08051C161FF
:10054000C06900F0805000900448416821F0E061EB
:1005500041F00071416008BD001002400000014000
:10056000002809DB00F01F020121914040098000B2
:1005700000F1E020C0F8001170470000F0B40E4B0D
:100580001B680C46C3F30223C3F10705042D00D9F1
:100590000425191D072901D2002300E0DB1E0126D6
:1005A00006FA05F1491E214099409E40761E1640EC
:1005B0003143F0BC00F00CBE0CED00E0064900F049
:1005C000070208684FF6FF03184040EA0220034A7A
:1005D00010430860704700000CED00E00000FA05D1
:1005E0002DE9F0470F46050061D0434E306800F01A
:1005F0000700B84209D2306820F007003843306065
:10060000306800F00700B84251D128683B4C8107A0
:1006100012D5400703D5606840F4E0606060287838
:10062000000703D5606840F4605060606068A968A6
:1006300020F0F000084360602878C00728D0686880
:10064000012810D02168022810D0890700292EDA4D
:10065000616821F0030101436160FFF723FF8046D9
:1006600041F288390DE021688903EFE78901EDE760
:10067000FFF718FFA0EB0801494502D90320BDE8A8
:10068000F0876068696800F00C00B0EB810FEFD173
:10069000306800F00700B8420BD9306820F007003E
:1006A00038433060306800F00700B84201D00120C4
:1006B000E5E72878400705D56068E96820F4E06040
:1006C000084360602878000706D56068296920F42F
:1006D000605040EAC100606000F018F86168084AA4
:1006E000C1F30311515CC840064908600648006820
:1006F000FFF7F8FE0020C2E7002002400010024091
:100700001E1600080C000020040000200E4A51684C
:100710000E4801F00C03042B11D0082B0FD10C480C
:10072000C1F38343C903C05C0AD55168084AC1F3C9
:100730004041921E515C054A5043B0FBF1F07047B6
:1007400004494843704700000010024000127A003C
:100750000E16000800093D002DE9F84F040070D086
:100760002078C04DC00749D06868C0F381000128D7
:1007700007D06868C0F38100022809D16868C00307
:1007800006D52868800339D560680028E7D035E0B1
:100790006068B0F5803F0BD010B1B0F5A02F11D03C
:1007A000286820F480302860286820F4802002E047
:1007B000286840F480302860606890B1FFF772FECE
:1007C00006460AE0286840F480202860F0E700BF71
:1007D000FFF768FE801B642873D828688003F7D56C
:1007E0000CE0FFF75FFE064605E000BFFFF75AFE8C
:1007F000801B6428F0D828688003F7D420789A4EAC
:1008000080074FF001094FF0000839D5686810F0F3
:100810000C0F07D06868C0F38100022809D168680E
:10082000C00306D42868800714D52069012808D1A0
:1008300010E02069B0B1C6F80090FFF733FE07461C
:1008400005E00AE1FFF72EFEC01B0228C4D8286885
:100850008007F7D52868616920F0F80040EAC100F8
:1008600028600DE0C6F80080FFF71CFE074604E094
:10087000FFF718FEC01B022823D828688007F7D48A
:10088000207800072CD57948A169D9B1C0F800902B
:10089000FFF708FE074604E0FFF704FEC01B02282E
:1008A0000FD8686A8007F7D571484FF4FA5100688D
:1008B000B0FBF1F0009000BF0098411E0091FAD209
:1008C0000EE080E0C0F80080FFF7ECFD074604E092
:1008D000FFF7E8FDC01B022875D8686A8007F7D4C7
:1008E0002078400760D5E8690027C00008D4E8698F
:1008F00040F08050E861E869012700F080500090E6
:100900005C480168C90513D40168834641F48071CD
:100910000160FFF7C7FD824606E000BFFFF7C2FD9A
:10092000A0EB0A0064284ED8DBF80000C005F5D51E
:10093000E06801280AD008B1052813D0286A20F001
:1009400001002862286A20F0040002E0286A40F0D2
:1009500001002862E06841F2883B98B1FFF7A2FDF0
:1009600082460BE0286A40F004002862EEE700BFF0
:10097000FFF798FDA0EB0A0159455AD8286A80076D
:10098000F6D50CE0FFF78EFD824605E0FFF78AFD05
:10099000A0EB0A0159454CD8286A8007F6D41FB14C
:1009A000E86920F08050E861E06988B36968C1F3C4
:1009B0008101022944D00228C6F8608004D0FFF7E4
:1009C00071FD044638E034E0FFF76CFD074604E0B3
:1009D000FFF768FDC01B02282BD828688001F7D4D8
:1009E000206AB0F5803F05D16868A16820F4003026
:1009F00008436860D4E908010843696821F4741168
:100A000008436860C6F86090FFF74CFD044606E0B6
:100A100025E000BFFFF746FD001B022809D8286823
:100A20008001F7D51BE000BFFFF73CFD001B02284B
:100A300002D90320BDE8F88F28688001F4D40EE0C5
:100A40000128F7D06868226A00F48031914204D10D
:100A5000616A00F47010884201D00120EAE70020AA
:100A6000E8E70000001002400000424280044242D9
:100A70000C0000200070004010B5401EB0F1807FD7
:100A800001D3012010BD4FF0E02460610F216017F9
:100A900000F09EFB0020A06107202061002010BD17
:100AA0007047704770B590F83C20012A26D0012489
:100AB00080F83C40022280F83D2003685A689D6817
:100AC00022F070060A6832435A600D4B02689A425F
:100AD00008D0B2F1804F05D00A4B9A4202D00A4B9F
:100AE0009A4204D1496825F080031943916080F847
:100AF0003D40002180F83C10084670BD022070BDCA
:100B0000002C0140000400400008004010B5040023
:100B100003D094F83D0010B107E0012010BD002083
:100B200084F83C00204600F01FF8022084F83D00C5
:100B3000211D206800F0E0FA012084F8460084F8C6
:100B40003E0084F83F0084F8400084F8410084F8B7
:100B5000420084F8430084F8440084F8450084F897
:100B60003D00002010BD000008B50068B0F1804FC6
:100B700012D10A48C16941F00101C161C069002276
:100B800000F00100009011461C20FFF7F7FCBDE8C3
:100B900008401C20FFF7E4BC08BD00000010024024
:100BA00090F83D10012901D001207047022180F802
:100BB0003D100168CA6842F00102CA6000680B4932
:100BC000884208D0B0F1804F05D00949884202D050
:100BD0000849884204D1816801F00701062903D041
:100BE000016841F00101016000207047002C0140C4
:100BF000000400400008004070B5044690F83C0036
:100C00000025012817D0012684F83C60022084F8D2
:100C10003D002068826822F0770222F47F428260E1
:100C20000868502838D00DDC20284FD005DC90B360
:100C3000102811D14AE0022070BD302846D040284B
:100C40000AD13BE060282FD070280DD0B0F5805F2E
:100C500003D0B0F5005F12D0012584F83D6000207C
:100C600084F83C00284670BDCB68D1E9012120689A
:100C700000F078FA2068816841F0770109E0CB68DC
:100C8000D1E90121206800F06DFA2068816841F403
:100C900080418160E1E719E0CA684968206800F096
:100CA00073FA5021206806E0CA684968206800F09D
:100CB0007CFA6021206800F05FFACEE7CA684968D4
:100CC000206800F061FA40212068F4E722680146BC
:100CD0001046F0E7704770B50446006801694FF0B0
:100CE0000005C943890715D4C168C943890711D4D0
:100CF000E91E016101202077206880698007204675
:100D000002D0FFF7E7FF04E000F098F8204600F07B
:100D100096F8257720680169C943490717D4C16847
:100D2000C943490713D46FF0040101610220207701
:100D30002068806910F4407F204602D0FFF7CAFF88
:100D400004E000F07BF8204600F079F82577206871
:100D50000169C943090716D4C168C943090712D4F8
:100D60006FF008010161042020772068C0698007C6
:100D7000204602D0FFF7AEFF04E000F05FF8204607
:100D800000F05DF8257720680169C943C90617D4CA
:100D9000C168C943C90613D46FF01001016108206E
:100DA00020772068C06910F4407F204602D0FFF70A
:100DB00091FF04E000F042F8204600F040F825776B
:100DC00020680169C943C90708D1C168C943C90777
:100DD00004D1891E0161204600F032F820680169C3
:100DE000C943090609D4C168C943090605D46FF08F
:100DF000800101612046FFF753FE20680169C94365
:100E0000490609D4C168C943490605D46FF04001B9
:100E10000161204600F034F820680169C943890661
:100E20000BD4C168C943890607D46FF02001016162
:100E30002046BDE87040FFF734BE70BD7047704774
:100E40000068B0F1804F13D10A488168491C816065
:100E50008168094B0022994200DB82600168074BE0
:100E6000491C0160994203DB4168491CC0E900212B
:100E7000704700001000002040420F00A0860100D3
:100E80007047FEE730B585B0002414480094019403
:100E900002940394816941F020018161816901F02C
:100EA00020010491816941F00401816180690C4D48
:100EB00000F0040004900022FF212846FFF7ECFA1E
:100EC000FF2000900120CDE9010403200390694632
:100ED0002846FFF7F1F905B030BD000000100240D0
:100EE0000008014010B586B0002416480094019413
:100EF0000294039404944FF08041059401604721CB
:100F0000C0E901146421C0E903148461FFF7FEFD08
:100F100008B1FFF7BCF94FF48050009069460948CA
:100F2000FFF76AFE08B1FFF7B2F9049404A9054877
:100F30000594FFF7B7FD002801D0FFF7A8F906B028
:100F400010BD00001C000020FEE710B5029C0160EF
:100F500082808360848110BD10B50446D4E9070106
:100F600081422CDA608A50B3A069642190FBF1F1D0
:100F7000144A926892FBF1F301FB1321C82290FB03
:100F8000F2F08142A188206804DA0122FFF784FA96
:100F9000002003E00022FFF77FFA012084F82400FC
:100FA00094F82500012805D194F8240010B9206A8E
:100FB000401C206214F8240F6070002010BD012036
:100FC00010BD0000100000202DE9F04704469046B7
:100FD0000D469946184600F039FA164E314600F093
:100FE00057F9154F394600F045FA00F013FA134946
:100FF000606191FBF0F0A0614046083400F026FAF1
:10100000314600F045F9394600F034FA00F002FAB2
:101010006061002060772077A061A4F80880A57146
:10102000A4F80A90A1882A462068BDE8F047FFF797
:1010300033BA00000000B4430000484440420F00AF
:101040000D4910B5002088600C48FFF785FF044665
:101050000A482830FFF780FF044408485038FFF75B
:101060007BFF044405482838FFF776FF2044C0B2D0
:101070000428E9D310BD000010000020B4000020B7
:10108000FEE770477047FFF713BA30B58FB02821DD
:101090006846FFF799F814210AA8FFF795F801218F
:1010A0000804CDE900100024029402250491CDE942
:1010B00007504FF4E01009906846FFF74DFB08B168
:1010C00072B6FEE70F20CDE90A054FF48060CDE946
:1010D0000C4002210AA80E94FFF782FA002801D0E2
:1010E00072B6FEE70FB030BD704700000148FFF751
:1010F000F2BD00001C000020F0B50268164B174C32
:10110000174D4FF08047984205D0B84203D0A04217
:1011100001D0A84203D122F070064A6832439842B7
:1011200005D0B84203D0A04201D0A84203D122F496
:101130004074CA6822434C6922F080022243026054
:101140008A68C2620A688262984201D109690163B1
:1011500001214161F0BD0000002C0140000400406D
:101160000008004010B5846842EA032224F47F445A
:101170000A432243826010BD826822F070020A4353
:1011800042F007018160704710B5036A046A24F0D9
:1011900001040462846924F0F00444EA021423F098
:1011A0000A020A438461026210BD10B5036A046A30
:1011B00024F010040462846923F0A00324F4704432
:1011C00044EA023243EA01118261016210BDFEE786
:1011D0000907090E002804DB00F1E02080F8001464
:1011E000704700F00F0000F1E02080F8141D7047F8
:1011F00008B5FFF765F9FFF748FFFFF743FEFFF774
:1012000071FE1D48FFF7CCFC1C4C022023460090C9
:10121000012219461A48FFF798FE0820234600903D
:10122000042219461748FFF790FE2020234600901D
:10123000102219461448FFF788FE802023460090AC
:10124000402219461148FFF780FE4FF4B4754FF461
:101250007A742A462B4601210948FFF7B5FEB423CC
:101260001A4601210748FFF7AFFEFFF7E9FE2046C7
:10127000FFF710F8EDE700001C0000200008014017
:10128000B4000020DC000020640000208C0000205E
:101290004FF47F0C1CEAD0121EBF1CEAD11392EA55
:1012A0000C0F93EA0C0F00F0858090EA010F48BF05
:1012B00042F4807240F4000C41F400002CF07F41B5
:1012C00020F07F4000B58142A2EB03020FF2081C20
:1012D000ACEB504EC0F100009EF800E04FEA4E0E1D
:1012E00000FB0EFC38BF49004FEA2C1C02F5FA0245
:1012F0000CFB0EF34FEACE1E4FEA112C4FEAC12130
:101300000EEB635E42EB22420EFB0CFC4FEA1C53D9
:1013100000FB03114FEA112C4FEA01310EFB0CFCCC
:101320004FEADC4C00FB0C11C14228BF09184CEB02
:1013300003335DF804EB10EB410143EBC250B2F50F
:101340007C0F38BF704729D512F0F00F1CBF00F199
:10135000C04000F00040704700818283848586870A
:1013600088898B8C8D8E8F919293959697999A9C64
:101370009D9FA0A2A3A5A7A8AAACAEB0B2B3B5B7D3
:10138000B9BCBEC0C2C5C7C9CCCED1D4D7D9DCDFA9
:10139000E2E6E9ECF0F3F7FAFE0000004FEA400C59
:1013A0000CF1807CBCF17E4F28BF7047B0F1C0408B
:1013B00000F027B990EA010F0CEAD11348BF42F4BC
:1013C0008072624538BF634507D213F47F0F16D091
:1013D00080EA010000F00040704710B500F0CBF843
:1013E000097EFC3E00F005B880EA010000F00040F4
:1013F000704780EA010000F0004000F002B912F4EA
:101400007F0F04BF0248704780EA010000F0F9B87E
:101410000000C07F41000B0ED3F19E0208D950F4AA
:1014200000034FEA032323FA02F048BF404270470B
:1014300010B500F0A0F800BF49922480002070474A
:101440006FF0004282EA200070470000B0FA80F39B
:1014500010FA03F2C3F19D030AD0D90501EB122063
:10146000530638BF704700F1010008BF20F00100AB
:10147000704700004FF47F0C1CEAD0121EBF1CEA1C
:10148000D11392EA0C0F93EA0C0F00F0478090EA18
:10149000010F48BF42F480724FF0004C4CEA00202C
:1014A0004CEA012102EB0302A0FB0113A2F50002AA
:1014B000002918BF43F001035B0028BF4FEA330344
:1014C00042EB22425FEA132C4CEBC2502EBFBCEB26
:1014D000436FB2F57C0F70474FEA036CBCF1004FCD
:1014E00008BF20F00100B2F57C0F38BF70470BD564
:1014F00082F0FF0212F5803FC8BF704700F1C04084
:10150000D8BF00F00040704700F5000C5FEA4C0CBB
:1015100048BF7047B0F1C04000F073B890EA010FC7
:101520000CEAD11348BF42F48072624538BF63456C
:1015300004D280EA010000F00040704710B500F0CE
:101540001AF800BF8900013E00F007B800F009B8A2
:101550005FEA410C5FEA1C6C08D080EA010000F0F1
:1015600050B85FEA400C5FEA1C6CF6D14FF00040C7
:10157000A0F5800070470EF1020E2EF0030E5EF80B
:10158000044B244204D44FEA4102B2F17F4F11D8F8
:101590004FEA4003B3F17F4F0CD80ED14FEAD07C15
:1015A000B2F17F4F0CEB4C0C0CF1020C08BF4CEB72
:1015B000D17C04E04FF0080C01E04FEAD17C0CEB49
:1015C0004C0324FA03F404F00704B4F1040C06D22B
:1015D0000EEB840CBDE810404CF0010C6047DFE8D6
:1015E0000CF0070802024FF00040A0F5800010BD8B
:1015F0000846420018BFD2F1807288BF00F0004058
:1016000010BDFF2141EAD050C0057047010202031E
:101610000405060708090A0B0C0D0E0F1010000038
:101620000000000000000102030406070809000092
:1016300050160008000000201C00000028010008CF
:101640006C1600081C0000204C0700004401000834
:101650000100000010000000000000000024F40061
:0C1660000000000000000000000000007E
:04000005080000ED02
:00000001FF
